{
  "_format": "hh-sol-artifact-1",
  "contractName": "TodoList",
  "sourceName": "contracts/TodoList.sol",
  "abi": [
    {
      "anonymous": false,
      "inputs": [
        {
          "indexed": true,
          "internalType": "address",
          "name": "user",
          "type": "address"
        },
        {
          "indexed": false,
          "internalType": "uint256",
          "name": "taskId",
          "type": "uint256"
        },
        {
          "indexed": false,
          "internalType": "string",
          "name": "content",
          "type": "string"
        }
      ],
      "name": "TaskAdded",
      "type": "event"
    },
    {
      "anonymous": false,
      "inputs": [
        {
          "indexed": true,
          "internalType": "address",
          "name": "user",
          "type": "address"
        },
        {
          "indexed": false,
          "internalType": "uint256",
          "name": "taskId",
          "type": "uint256"
        }
      ],
      "name": "TaskCompleted",
      "type": "event"
    },
    {
      "anonymous": false,
      "inputs": [
        {
          "indexed": true,
          "internalType": "address",
          "name": "user",
          "type": "address"
        },
        {
          "indexed": false,
          "internalType": "uint256",
          "name": "taskId",
          "type": "uint256"
        }
      ],
      "name": "TaskDeleted",
      "type": "event"
    },
    {
      "inputs": [
        {
          "internalType": "string",
          "name": "_content",
          "type": "string"
        }
      ],
      "name": "addTask",
      "outputs": [],
      "stateMutability": "nonpayable",
      "type": "function"
    },
    {
      "inputs": [
        {
          "internalType": "uint256",
          "name": "_taskId",
          "type": "uint256"
        }
      ],
      "name": "completeTask",
      "outputs": [],
      "stateMutability": "nonpayable",
      "type": "function"
    },
    {
      "inputs": [
        {
          "internalType": "uint256",
          "name": "_taskId",
          "type": "uint256"
        }
      ],
      "name": "deleteTask",
      "outputs": [],
      "stateMutability": "nonpayable",
      "type": "function"
    },
    {
      "inputs": [],
      "name": "getTasks",
      "outputs": [
        {
          "components": [
            {
              "internalType": "uint256",
              "name": "id",
              "type": "uint256"
            },
            {
              "internalType": "string",
              "name": "content",
              "type": "string"
            },
            {
              "internalType": "bool",
              "name": "completed",
              "type": "bool"
            }
          ],
          "internalType": "struct TodoList.Task[]",
          "name": "",
          "type": "tuple[]"
        }
      ],
      "stateMutability": "view",
      "type": "function"
    }
  ],
  "bytecode": "0x6080604052348015600f57600080fd5b506110e18061001f6000396000f3fe608060405234801561001057600080fd5b506004361061004c5760003560e01c806304a87e3814610051578063560f31921461006f578063672385621461008b578063e1e29558146100a7575b600080fd5b6100596100c3565b60405161006691906108f1565b60405180910390f35b61008960048036038101906100849190610953565b610215565b005b6100a560048036038101906100a09190610ab5565b61040f565b005b6100c160048036038101906100bc9190610953565b610570565b005b60606000803373ffffffffffffffffffffffffffffffffffffffff1673ffffffffffffffffffffffffffffffffffffffff168152602001908152602001600020805480602002602001604051908101604052809291908181526020016000905b8282101561020c57838290600052602060002090600302016040518060600160405290816000820154815260200160018201805461016090610b2d565b80601f016020809104026020016040519081016040528092919081815260200182805461018c90610b2d565b80156101d95780601f106101ae576101008083540402835291602001916101d9565b820191906000526020600020905b8154815290600101906020018083116101bc57829003601f168201915b505050505081526020016002820160009054906101000a900460ff16151515158152505081526020019060010190610123565b50505050905090565b60008060003373ffffffffffffffffffffffffffffffffffffffff1673ffffffffffffffffffffffffffffffffffffffff16815260200190815260200160002090508080549050821061029d576040517f08c379a000000000000000000000000000000000000000000000000000000000815260040161029490610bbb565b60405180910390fd5b80600182805490506102af9190610c0a565b815481106102c0576102bf610c3e565b5b90600052602060002090600302018183815481106102e1576102e0610c3e565b5b9060005260206000209060030201600082015481600001556001820181600101908161030d9190610e2f565b506002820160009054906101000a900460ff168160020160006101000a81548160ff0219169083151502179055509050508181838154811061035257610351610c3e565b5b9060005260206000209060030201600001819055508080548061037857610377610f17565b5b60019003818190600052602060002090600302016000808201600090556001820160006103a591906106be565b6002820160006101000a81549060ff0219169055505090553373ffffffffffffffffffffffffffffffffffffffff167fd1bc87501afcaa22b7f6481dac99ed45fbe02321873ca9b55c1f41b9d78b8fb3836040516104039190610f55565b60405180910390a25050565b60008060003373ffffffffffffffffffffffffffffffffffffffff1673ffffffffffffffffffffffffffffffffffffffff1681526020019081526020016000208054905090506000803373ffffffffffffffffffffffffffffffffffffffff1673ffffffffffffffffffffffffffffffffffffffff16815260200190815260200160002060405180606001604052808381526020018481526020016000151581525090806001815401808255809150506001900390600052602060002090600302016000909190919091506000820151816000015560208201518160010190816104f99190610f70565b5060408201518160020160006101000a81548160ff02191690831515021790555050503373ffffffffffffffffffffffffffffffffffffffff167f793f49aab3b9e0d3125d745773b78ac45236f2beeed7c6296e60911e17a0de42828460405161056492919061107b565b60405180910390a25050565b6000803373ffffffffffffffffffffffffffffffffffffffff1673ffffffffffffffffffffffffffffffffffffffff1681526020019081526020016000208054905081106105f3576040517f08c379a00000000000000000000000000000000000000000000000000000000081526004016105ea90610bbb565b60405180910390fd5b60016000803373ffffffffffffffffffffffffffffffffffffffff1673ffffffffffffffffffffffffffffffffffffffff168152602001908152602001600020828154811061064557610644610c3e565b5b906000526020600020906003020160020160006101000a81548160ff0219169083151502179055503373ffffffffffffffffffffffffffffffffffffffff167ff684d89bb0f42287bf32838774e4b7f8a60c11804b3c6d1791fa55f306792643826040516106b39190610f55565b60405180910390a250565b5080546106ca90610b2d565b6000825580601f106106dc57506106fb565b601f0160209004906000526020600020908101906106fa91906106fe565b5b50565b5b808211156107175760008160009055506001016106ff565b5090565b600081519050919050565b600082825260208201905092915050565b6000819050602082019050919050565b6000819050919050565b61075a81610747565b82525050565b600081519050919050565b600082825260208201905092915050565b60005b8381101561079a57808201518184015260208101905061077f565b60008484015250505050565b6000601f19601f8301169050919050565b60006107c282610760565b6107cc818561076b565b93506107dc81856020860161077c565b6107e5816107a6565b840191505092915050565b60008115159050919050565b610805816107f0565b82525050565b60006060830160008301516108236000860182610751565b506020830151848203602086015261083b82826107b7565b915050604083015161085060408601826107fc565b508091505092915050565b6000610867838361080b565b905092915050565b6000602082019050919050565b60006108878261071b565b6108918185610726565b9350836020820285016108a385610737565b8060005b858110156108df57848403895281516108c0858261085b565b94506108cb8361086f565b925060208a019950506001810190506108a7565b50829750879550505050505092915050565b6000602082019050818103600083015261090b818461087c565b905092915050565b6000604051905090565b600080fd5b600080fd5b61093081610747565b811461093b57600080fd5b50565b60008135905061094d81610927565b92915050565b6000602082840312156109695761096861091d565b5b60006109778482850161093e565b91505092915050565b600080fd5b600080fd5b7f4e487b7100000000000000000000000000000000000000000000000000000000600052604160045260246000fd5b6109c2826107a6565b810181811067ffffffffffffffff821117156109e1576109e061098a565b5b80604052505050565b60006109f4610913565b9050610a0082826109b9565b919050565b600067ffffffffffffffff821115610a2057610a1f61098a565b5b610a29826107a6565b9050602081019050919050565b82818337600083830152505050565b6000610a58610a5384610a05565b6109ea565b905082815260208101848484011115610a7457610a73610985565b5b610a7f848285610a36565b509392505050565b600082601f830112610a9c57610a9b610980565b5b8135610aac848260208601610a45565b91505092915050565b600060208284031215610acb57610aca61091d565b5b600082013567ffffffffffffffff811115610ae957610ae8610922565b5b610af584828501610a87565b91505092915050565b7f4e487b7100000000000000000000000000000000000000000000000000000000600052602260045260246000fd5b60006002820490506001821680610b4557607f821691505b602082108103610b5857610b57610afe565b5b50919050565b600082825260208201905092915050565b7f5461736b20646f6573206e6f7420657869737400000000000000000000000000600082015250565b6000610ba5601383610b5e565b9150610bb082610b6f565b602082019050919050565b60006020820190508181036000830152610bd481610b98565b9050919050565b7f4e487b7100000000000000000000000000000000000000000000000000000000600052601160045260246000fd5b6000610c1582610747565b9150610c2083610747565b9250828203905081811115610c3857610c37610bdb565b5b92915050565b7f4e487b7100000000000000000000000000000000000000000000000000000000600052603260045260246000fd5b600081549050610c7c81610b2d565b9050919050565b60008190508160005260206000209050919050565b60006020601f8301049050919050565b600082821b905092915050565b600060088302610ce57fffffffffffffffffffffffffffffffffffffffffffffffffffffffffffffffff82610ca8565b610cef8683610ca8565b95508019841693508086168417925050509392505050565b6000819050919050565b6000610d2c610d27610d2284610747565b610d07565b610747565b9050919050565b6000819050919050565b610d4683610d11565b610d5a610d5282610d33565b848454610cb5565b825550505050565b600090565b610d6f610d62565b610d7a818484610d3d565b505050565b5b81811015610d9e57610d93600082610d67565b600181019050610d80565b5050565b601f821115610de357610db481610c83565b610dbd84610c98565b81016020851015610dcc578190505b610de0610dd885610c98565b830182610d7f565b50505b505050565b600082821c905092915050565b6000610e0660001984600802610de8565b1980831691505092915050565b6000610e1f8383610df5565b9150826002028217905092915050565b818103610e3d575050610f15565b610e4682610c6d565b67ffffffffffffffff811115610e5f57610e5e61098a565b5b610e698254610b2d565b610e74828285610da2565b6000601f831160018114610ea35760008415610e91578287015490505b610e9b8582610e13565b865550610f0e565b601f198416610eb187610c83565b9650610ebc86610c83565b60005b82811015610ee457848901548255600182019150600185019450602081019050610ebf565b86831015610f015784890154610efd601f891682610df5565b8355505b6001600288020188555050505b5050505050505b565b7f4e487b7100000000000000000000000000000000000000000000000000000000600052603160045260246000fd5b610f4f81610747565b82525050565b6000602082019050610f6a6000830184610f46565b92915050565b610f7982610760565b67ffffffffffffffff811115610f9257610f9161098a565b5b610f9c8254610b2d565b610fa7828285610da2565b600060209050601f831160018114610fda5760008415610fc8578287015190505b610fd28582610e13565b86555061103a565b601f198416610fe886610c83565b60005b8281101561101057848901518255600182019150602085019450602081019050610feb565b8683101561102d5784890151611029601f891682610df5565b8355505b6001600288020188555050505b505050505050565b600061104d82610760565b6110578185610b5e565b935061106781856020860161077c565b611070816107a6565b840191505092915050565b60006040820190506110906000830185610f46565b81810360208301526110a28184611042565b9050939250505056fea264697066735822122042843945b37f792eef23d9428e7814078e0b1514a425e14590b4a3f3bb56f57b64736f6c634300081c0033",
  "linkReferences": {},
  "deployedLinkReferences": {}
}