{
  "_format": "hh-sol-artifact-1",
  "contractName": "Counter",
  "sourceName": "contracts/Counter.sol",
  "abi": [
    {
      "anonymous": false,
      "inputs": [
        {
          "indexed": true,
          "internalType": "address",
          "name": "user",
          "type": "address"
        },
        {
          "indexed": false,
          "internalType": "uint256",
          "name": "newCount",
          "type": "uint256"
        }
      ],
      "name": "Increment",
      "type": "event"
    },
    {
      "anonymous": false,
      "inputs": [
        {
          "indexed": true,
          "internalType": "address",
          "name": "user",
          "type": "address"
        }
      ],
      "name": "Reset",
      "type": "event"
    },
    {
      "inputs": [],
      "name": "count",
      "outputs": [
        {
          "internalType": "uint256",
          "name": "",
          "type": "uint256"
        }
      ],
      "stateMutability": "view",
      "type": "function"
    },
    {
      "inputs": [],
      "name": "increment",
      "outputs": [],
      "stateMutability": "nonpayable",
      "type": "function"
    },
    {
      "inputs": [],
      "name": "reset",
      "outputs": [],
      "stateMutability": "nonpayable",
      "type": "function"
    }
  ],
  "bytecode": "0x6080604052348015600f57600080fd5b506102028061001f6000396000f3fe608060405234801561001057600080fd5b50600436106100415760003560e01c806306661abd14610046578063d09de08a14610064578063d826f88f1461006e575b600080fd5b61004e610078565b60405161005b919061014e565b60405180910390f35b61006c61007e565b005b6100766100e9565b005b60005481565b60016000808282546100909190610198565b925050819055503373ffffffffffffffffffffffffffffffffffffffff167fb182275171042022ff972a26edbd0171bccc74463bd22e56dbbeba4e93b7a6686000546040516100df919061014e565b60405180910390a2565b600080819055503373ffffffffffffffffffffffffffffffffffffffff167f162f46783fcc741c289a7af5bd16474ace09d7e8a9d5fe1ac0d37b12afc0ccac60405160405180910390a2565b6000819050919050565b61014881610135565b82525050565b6000602082019050610163600083018461013f565b92915050565b7f4e487b7100000000000000000000000000000000000000000000000000000000600052601160045260246000fd5b60006101a382610135565b91506101ae83610135565b92508282019050808211156101c6576101c5610169565b5b9291505056fea26469706673582212209663f61715a6fc0ceb27127d7a076920d610a1e02c80258d368a8ecff5525fab64736f6c634300081c0033",
  "linkReferences": {},
  "deployedLinkReferences": {}
}